{
  "contractName": "SimpleStorage",
  "abi": [
    {
      "anonymous": false,
      "inputs": [
        {
          "indexed": false,
          "internalType": "uint256",
          "name": "_val",
          "type": "uint256"
        }
      ],
      "name": "valueChanged",
      "type": "event"
    },
    {
      "inputs": [],
      "name": "read",
      "outputs": [
        {
          "internalType": "uint256",
          "name": "",
          "type": "uint256"
        }
      ],
      "stateMutability": "view",
      "type": "function",
      "constant": true
    },
    {
      "inputs": [
        {
          "internalType": "uint256",
          "name": "newValue",
          "type": "uint256"
        }
      ],
      "name": "write",
      "outputs": [],
      "stateMutability": "nonpayable",
      "type": "function"
    },
    {
      "inputs": [],
      "name": "getGreeter",
      "outputs": [
        {
          "internalType": "string",
          "name": "",
          "type": "string"
        }
      ],
      "stateMutability": "view",
      "type": "function",
      "constant": true
    },
    {
      "inputs": [
        {
          "internalType": "string",
          "name": "_greeter",
          "type": "string"
        }
      ],
      "name": "setGreeter",
      "outputs": [],
      "stateMutability": "nonpayable",
      "type": "function"
    }
  ],
  "bytecode": "0x608060405234801561001057600080fd5b50610799806100206000396000f3fe608060405234801561001057600080fd5b506004361061004c5760003560e01c8063190663e4146100515780632f048afa1461006d57806357de26a4146100895780636423dbad146100a7575b600080fd5b61006b6004803603810190610066919061030e565b6100c5565b005b6100876004803603810190610082919061038d565b6100d8565b005b610091610119565b60405161009e91906103c9565b60405180910390f35b6100af610122565b6040516100bc9190610463565b60405180910390f35b80600190816100d49190610691565b5050565b806000819055507fc0dd44d3f117c96295a84b2eb7b3f6abe929928d111b030bfb3568f5efa0ff1f8160405161010e91906103c9565b60405180910390a150565b60008054905090565b606060018054610131906104b4565b80601f016020809104026020016040519081016040528092919081815260200182805461015d906104b4565b80156101aa5780601f1061017f576101008083540402835291602001916101aa565b820191906000526020600020905b81548152906001019060200180831161018d57829003601f168201915b5050505050905090565b6000604051905090565b600080fd5b600080fd5b600080fd5b600080fd5b6000601f19601f8301169050919050565b7f4e487b7100000000000000000000000000000000000000000000000000000000600052604160045260246000fd5b61021b826101d2565b810181811067ffffffffffffffff8211171561023a576102396101e3565b5b80604052505050565b600061024d6101b4565b90506102598282610212565b919050565b600067ffffffffffffffff821115610279576102786101e3565b5b610282826101d2565b9050602081019050919050565b82818337600083830152505050565b60006102b16102ac8461025e565b610243565b9050828152602081018484840111156102cd576102cc6101cd565b5b6102d884828561028f565b509392505050565b600082601f8301126102f5576102f46101c8565b5b813561030584826020860161029e565b91505092915050565b600060208284031215610324576103236101be565b5b600082013567ffffffffffffffff811115610342576103416101c3565b5b61034e848285016102e0565b91505092915050565b6000819050919050565b61036a81610357565b811461037557600080fd5b50565b60008135905061038781610361565b92915050565b6000602082840312156103a3576103a26101be565b5b60006103b184828501610378565b91505092915050565b6103c381610357565b82525050565b60006020820190506103de60008301846103ba565b92915050565b600081519050919050565b600082825260208201905092915050565b60005b8381101561041e578082015181840152602081019050610403565b60008484015250505050565b6000610435826103e4565b61043f81856103ef565b935061044f818560208601610400565b610458816101d2565b840191505092915050565b6000602082019050818103600083015261047d818461042a565b905092915050565b7f4e487b7100000000000000000000000000000000000000000000000000000000600052602260045260246000fd5b600060028204905060018216806104cc57607f821691505b6020821081036104df576104de610485565b5b50919050565b60008190508160005260206000209050919050565b60006020601f8301049050919050565b600082821b905092915050565b6000600883026105477fffffffffffffffffffffffffffffffffffffffffffffffffffffffffffffffff8261050a565b610551868361050a565b95508019841693508086168417925050509392505050565b6000819050919050565b600061058e61058961058484610357565b610569565b610357565b9050919050565b6000819050919050565b6105a883610573565b6105bc6105b482610595565b848454610517565b825550505050565b600090565b6105d16105c4565b6105dc81848461059f565b505050565b5b81811015610600576105f56000826105c9565b6001810190506105e2565b5050565b601f82111561064557610616816104e5565b61061f846104fa565b8101602085101561062e578190505b61064261063a856104fa565b8301826105e1565b50505b505050565b600082821c905092915050565b60006106686000198460080261064a565b1980831691505092915050565b60006106818383610657565b9150826002028217905092915050565b61069a826103e4565b67ffffffffffffffff8111156106b3576106b26101e3565b5b6106bd82546104b4565b6106c8828285610604565b600060209050601f8311600181146106fb57600084156106e9578287015190505b6106f38582610675565b86555061075b565b601f198416610709866104e5565b60005b828110156107315784890151825560018201915060208501945060208101905061070c565b8683101561074e578489015161074a601f891682610657565b8355505b6001600288020188555050505b50505050505056fea264697066735822122009e7872d4952be26fb4967ca715c489f4e9da47327be8c5aea183ece3b9e847464736f6c63430008110033",
  "immutableReferences": {},
  "source": "// SPDX-License-Identifier: MIT\npragma solidity >=0.4.22 <0.9.0;\n\ncontract SimpleStorage {\n  uint256 value;\n  string greeter;\n\n  event valueChanged(uint _val);\n\n  function read() public view returns (uint256) {\n    return value;\n  }\n\n  function write(uint256 newValue) public {\n    value = newValue;\n\n    emit valueChanged(newValue);\n  }\n\n  function getGreeter() public view returns (string memory) {\n    return greeter;\n  }\n\n  function setGreeter(string memory _greeter) public {\n    greeter = _greeter;\n  }\n}\n",
  "sourcePath": "/home/tuxin/simple-storage-react/truffle/contracts/SimpleStorage.sol",
  "compiler": {
    "name": "solc",
    "version": "0.8.17+commit.8df45f5f.Emscripten.clang"
  },
  "schemaVersion": "3.4.11",
  "updatedAt": "2023-03-06T19:17:15.729Z",
  "networkType": "ethereum",
  "devdoc": {
    "kind": "dev",
    "methods": {},
    "version": 1
  },
  "userdoc": {
    "kind": "user",
    "methods": {},
    "version": 1
  }
}